:020000000328D3
:10000600831686018130831286000530CB0091303D
:10001600CC00CF30CD00CD0B0E28CC0B0E28CB0B51
:100026000E2800000000423086000530CB009130DB
:10003600CC00CF30CD00CD0B1E28CC0B1E28CB0B11
:100046001E2800000000243086000530CB009130C9
:10005600CC00CF30CD00CD0B2E28CC0B2E28CB0BD1
:100066002E2800000000183086000530CB009130A5
:10007600CC00CF30CD00CD0B3E28CC0B3E28CB0B91
:100086003E2800000000243086000530CB00913069
:10009600CC00CF30CD00CD0B4E28CC0B4E28CB0B51
:0E00A6004E2800000000423086000528592830
:02400E00F93F78
:00000001FF
