:02000000652970
:100006008030831286004E30CC00EB30CD00CD0B15
:100016000A28CC0B0A28403086004E30CC00EB3044
:10002600CD00CD0B1428CC0B1428203086004E3082
:10003600CC00EB30CD00CD0B1E28CC0B1E2810308B
:1000460086004E30CC00EB30CD00CD0B2828CC0BF3
:100056002828083086004E30CC00EB30CD00CD0B82
:100066003228CC0B3228043086004E30CC00EB30E0
:10007600CD00CD0B3C28CC0B3C28023086004E3000
:10008600CC00EB30CD00CD0B4628CC0B46280130FA
:1000960086004E30CC00EB30CD00CD0B5028CC0B7B
:1000A6005028023086004E30CC00EB30CD00CD0B10
:1000B6005A28CC0B5A28043086004E30CC00EB3040
:1000C600CD00CD0B6428CC0B6428083086004E305A
:1000D600CC00EB30CD00CD0B6E28CC0B6E2810304B
:1000E60086004E30CC00EB30CD00CD0B7828CC0B03
:1000F6007828203086004E30CC00EB30CD00CD0B7A
:100106008228CC0B8228403086004E30CC00EB3063
:0C011600CD00CD0B8C28CC0B8C280800F1
:100122008030831286000530CB000F30CC00F130D6
:10013200CD00CD0B9A28CC0B9A28CB0B9A28C03035
:1001420086000530CB000F30CC00F130CD00CD0B56
:10015200A828CC0BA828CB0BA82840308600053055
:10016200CB000F30CC00F130CD00CD0BB628CC0B3C
:10017200B628CB0BB628603086000530CB000F3096
:10018200CC00F130CD00CD0BC428CC0BC428CB0B56
:10019200C428203086000530CB000F30CC00F1306F
:1001A200CD00CD0BD228CC0BD228CB0BD2283030AD
:1001B20086000530CB000F30CC00F130CD00CD0BE6
:1001C200E028CC0BE028CB0BE0281030860005306D
:1001D200CB000F30CC00F130CD00CD0BEE28CC0B94
:1001E200EE28CB0BEE28183086000530CB000F30FE
:1001F200CC00F130CD00CD0BFC28CC0BFC28CB0B76
:10020200FC28083086000530CB000F30CC00F130DE
:10021200CD00CD0B0A29CC0B0A29CB0B0A290C30B5
:1002220086000530CB000F30CC00F130CD00CD0B75
:100232001829CC0B1829CB0B18290430860005305D
:10024200CB000F30CC00F130CD00CD0B2629CC0BEA
:100252002629CB0B2629063086000530CB000F302D
:10026200CC00F130CD00CD0B3429CC0B3429CB0B93
:100272003429023086000530CB000F30CC00F1303B
:10028200CD00CD0B4229CC0B4229CB0B42290330A6
:1002920086000530CB000F30CC00F130CD00CD0B05
:1002A2005029CC0B5029CB0B502901308600053048
:1002B200CB000F30CC00F130CD00CD0B5E29CC0B42
:0802C2005E29CB0B5E29080048
:1002CA00FF30831685008601B3290320CD299120AA
:1002DA00CD29F03086000230CB00C730CC00883000
:1002EA00CD00CD0B7629CC0B7629CB0B76290000D5
:1002FA000F3086000230CB00C730CC008830CD00EA
:10030A00CD0B8529CC0B8529CB0B85290000CD295E
:10031A008601CD290A308600CD29F0308600CD2904
:10032A00FF3086000230CB00C730CC008830CD00C9
:10033A00CD0B9D29CC0B9D29CB0B9D290000860155
:10034A000230CB00C730CC008830CD00CD0BAB29B2
:10035A00CC0BAB29CB0BAB290000CD2983120508A6
:10036A00003A03196A290508013A03196C29050894
:10037A00023A03196E290508033A03198D2905085B
:10038A00043A03198F290508053A03199229952970
:04039A006929CE29D6
:02400E00F93F78
:00000001FF
