:020000009B293A
:100006008030831286000430CB000C30CC003330B5
:10001600CD00CD0B0C28CC0B0C28CB0B0C280000EC
:100026000000403086000430CB000C30CC0033306A
:10003600CD00CD0B1C28CC0B1C28CB0B1C2800009C
:100046000000203086000430CB000C30CC0033306A
:10005600CD00CD0B2C28CC0B2C28CB0B2C2800004C
:100066000000103086000430CB000C30CC0033305A
:10007600CD00CD0B3C28CC0B3C28CB0B3C280000FC
:100086000000083086000430CB000C30CC00333042
:10009600CD00CD0B4C28CC0B4C28CB0B4C280000AC
:1000A6000000043086000430CB000C30CC00333026
:1000B600CD00CD0B5C28CC0B5C28CB0B5C2800005C
:1000C6000000023086000430CB000C30CC00333008
:1000D600CD00CD0B6C28CC0B6C28CB0B6C2800000C
:1000E6000000013086000430CB000C30CC003330E9
:1000F600CD00CD0B7C28CC0B7C28CB0B7C280000BC
:100106000000023086000430CB000C30CC003330C7
:10011600CD00CD0B8C28CC0B8C28CB0B8C2800006B
:100126000000043086000430CB000C30CC003330A5
:10013600CD00CD0B9C28CC0B9C28CB0B9C2800001B
:100146000000083086000430CB000C30CC00333081
:10015600CD00CD0BAC28CC0BAC28CB0BAC280000CB
:100166000000103086000430CB000C30CC00333059
:10017600CD00CD0BBC28CC0BBC28CB0BBC2800007B
:100186000000203086000430CB000C30CC00333029
:10019600CD00CD0BCC28CC0BCC28CB0BCC2800002B
:1001A6000000403086000430CB000C30CC003330E9
:1001B600CD00CD0BDC28CC0BDC28CB0BDC280000DB
:0401C600000008002D
:1001CA002030831286000430CB000C30CC00333050
:1001DA00CD00CD0BEE28CC0BEE28CB0BEE28000081
:1001EA000000303086000430CB000C30CC003330B5
:1001FA00CD00CD0BFE28CC0BFE28CB0BFE28000031
:10020A000000103086000430CB000C30CC003330B4
:10021A00CD00CD0B0E29CC0B0E29CB0B0E290000DD
:10022A000000183086000430CB000C30CC0033308C
:10023A00CD00CD0B1E29CC0B1E29CB0B1E2900008D
:10024A000000083086000430CB000C30CC0033307C
:10025A00CD00CD0B2E29CC0B2E29CB0B2E2900003D
:10026A0000000C3086000430CB000C30CC00333058
:10027A00CD00CD0B3E29CC0B3E29CB0B3E290000ED
:04028A000000080068
:10028E008130831286000430CB000C30CC0033302A
:10029E00CD00CD0B5029CC0B5029CB0B5029000093
:1002AE000000423086000430CB000C30CC003330DE
:1002BE00CD00CD0B6029CC0B6029CB0B6029000043
:1002CE000000243086000430CB000C30CC003330DC
:1002DE00CD00CD0B7029CC0B7029CB0B70290000F3
:1002EE000000183086000430CB000C30CC003330C8
:1002FE00CD00CD0B8029CC0B8029CB0B80290000A3
:10030E000000243086000430CB000C30CC0033309B
:10031E00CD00CD0B9029CC0B9029CB0B9029000052
:08032E000000423086000800C7
:10033600FF30831685008601ED290320072A472111
:10034600072AE520072AF03085000630CB00133057
:10035600CC00AD30CD00CD0BAE29CC0BAE29CB0BEE
:10036600AE29000000000F3085000630CB001330A8
:10037600CC00AD30CD00CD0BBE29CC0BBE29CB0BAE
:10038600BE2900000000072AFF308500072ACC306E
:1003960085000630CB001330CC00AD30CD00CD0B40
:1003A600D229CC0BD229CB0BD22900000000333046
:1003B60085000630CB001330CC00AD30CD00CD0B20
:1003C600E229CC0BE229CB0BE22900000000072A28
:1003D6008501072A83120508003A0319A029050892
:1003E600013A0319A2290508023A0319A4290508A6
:1003F600033A0319A6290508043A0319C72905086B
:0C040600053A0319CA29EB299F29082A8E
:02400E00F93F78
:00000001FF
