:02000000412994
:100006000230831286000530CB009130CC00CF3011
:10001600CD00CD0B0C28CC0B0C28CB0B0C280000EC
:100026000000043086000530CB009130CC00CF3084
:10003600CD00CD0B1C28CC0B1C28CB0B1C2800009C
:100046000000083086000530CB009130CC00CF3060
:10005600CD00CD0B2C28CC0B2C28CB0B2C2800004C
:100066000000103086000530CB009130CC00CF3038
:10007600CD00CD0B3C28CC0B3C28CB0B3C280000FC
:100086000000203086000530CB009130CC00CF3008
:10009600CD00CD0B4C28CC0B4C28CB0B4C280000AC
:1000A6000000403086000530CB009130CC00CF30C8
:1000B600CD00CD0B5C28CC0B5C28CB0B5C2800005C
:0400C600000008002E
:1000CA008030831286000530CB009130CC00CF30CF
:1000DA00CD00CD0B6E28CC0B6E28CB0B6E28000002
:1000EA000000403086000530CB009130CC00CF3084
:1000FA00CD00CD0B7E28CC0B7E28CB0B7E280000B2
:10010A000000203086000530CB009130CC00CF3083
:10011A00CD00CD0B8E28CC0B8E28CB0B8E28000061
:10012A000000103086000530CB009130CC00CF3073
:10013A00CD00CD0B9E28CC0B9E28CB0B9E28000011
:10014A000000083086000530CB009130CC00CF305B
:10015A00CD00CD0BAE28CC0BAE28CB0BAE280000C1
:10016A000000043086000530CB009130CC00CF303F
:10017A00CD00CD0BBE28CC0BBE28CB0BBE28000071
:10018A000000023086000530CB009130CC00CF3021
:10019A00CD00CD0BCE28CC0BCE28CB0BCE28000021
:1001AA000000013086000530CB009130CC00CF3002
:1001BA00CD00CD0BDE28CC0BDE28CB0BDE280000D1
:0401CA000000080029
:0C01CE008316860165200320E928080044
:1001DA008130831286000530CB009130CC00CF30BD
:1001EA00CD00CD0BF628CC0BF628CB0BF628000059
:1001FA000000423086000530CB009130CC00CF3071
:10020A00CD00CD0B0629CC0B0629CB0B0629000005
:10021A000000243086000530CB009130CC00CF306E
:10022A00CD00CD0B1629CC0B1629CB0B16290000B5
:10023A000000183086000530CB009130CC00CF305A
:10024A00CD00CD0B2629CC0B2629CB0B2629000065
:10025A000000243086000530CB009130CC00CF302E
:10026A00CD00CD0B3629CC0B3629CB0B3629000015
:08027A0000004230860008007C
:10028200FF3083168500860183120508003A031D9C
:100292004B29E7200508013A031D5029ED20452985
:0202A2005129E0
:02400E00F93F78
:00000001FF
