:02000000E728EF
:100006008030831286000530CB009130CC00CF3093
:10001600CD00CD0B0C28CC0B0C28CB0B0C280000EC
:100026000000403086000530CB009130CC00CF3048
:10003600CD00CD0B1C28CC0B1C28CB0B1C2800009C
:100046000000203086000530CB009130CC00CF3048
:10005600CD00CD0B2C28CC0B2C28CB0B2C2800004C
:100066000000103086000530CB009130CC00CF3038
:10007600CD00CD0B3C28CC0B3C28CB0B3C280000FC
:100086000000083086000530CB009130CC00CF3020
:10009600CD00CD0B4C28CC0B4C28CB0B4C280000AC
:1000A6000000043086000530CB009130CC00CF3004
:1000B600CD00CD0B5C28CC0B5C28CB0B5C2800005C
:1000C6000000023086000530CB009130CC00CF30E6
:1000D600CD00CD0B6C28CC0B6C28CB0B6C2800000C
:1000E6000000013086000530CB009130CC00CF30C7
:1000F600CD00CD0B7C28CC0B7C28CB0B7C280000BC
:0401060000000800ED
:10010A000230831286000530CB009130CC00CF300C
:10011A00CD00CD0B8E28CC0B8E28CB0B8E28000061
:10012A000000043086000530CB009130CC00CF307F
:10013A00CD00CD0B9E28CC0B9E28CB0B9E28000011
:10014A000000083086000530CB009130CC00CF305B
:10015A00CD00CD0BAE28CC0BAE28CB0BAE280000C1
:10016A000000103086000530CB009130CC00CF3033
:10017A00CD00CD0BBE28CC0BBE28CB0BBE28000071
:10018A000000203086000530CB009130CC00CF3003
:10019A00CD00CD0BCE28CC0BCE28CB0BCE28000021
:1001AA000000403086000530CB009130CC00CF30C3
:1001BA00CD00CD0BDE28CC0BDE28CB0BDE280000D1
:0401CA000000080029
:0C01CE008316860103208520E928EC2818
:02400E00F93F78
:00000001FF
